{
  "_format": "hh-sol-artifact-1",
  "contractName": "DegenToken",
  "sourceName": "contracts/DegenToken.sol",
  "abi": [
    {
      "inputs": [],
      "stateMutability": "nonpayable",
      "type": "constructor"
    },
    {
      "anonymous": false,
      "inputs": [
        {
          "indexed": true,
          "internalType": "address",
          "name": "owner",
          "type": "address"
        },
        {
          "indexed": true,
          "internalType": "address",
          "name": "spender",
          "type": "address"
        },
        {
          "indexed": false,
          "internalType": "uint256",
          "name": "value",
          "type": "uint256"
        }
      ],
      "name": "Approval",
      "type": "event"
    },
    {
      "anonymous": false,
      "inputs": [
        {
          "indexed": true,
          "internalType": "address",
          "name": "previousOwner",
          "type": "address"
        },
        {
          "indexed": true,
          "internalType": "address",
          "name": "newOwner",
          "type": "address"
        }
      ],
      "name": "OwnershipTransferred",
      "type": "event"
    },
    {
      "anonymous": false,
      "inputs": [
        {
          "indexed": false,
          "internalType": "address",
          "name": "buyer",
          "type": "address"
        },
        {
          "indexed": false,
          "internalType": "uint256",
          "name": "amount",
          "type": "uint256"
        },
        {
          "indexed": false,
          "internalType": "string",
          "name": "item_id",
          "type": "string"
        }
      ],
      "name": "TokenRedeemed",
      "type": "event"
    },
    {
      "anonymous": false,
      "inputs": [
        {
          "indexed": true,
          "internalType": "address",
          "name": "from",
          "type": "address"
        },
        {
          "indexed": true,
          "internalType": "address",
          "name": "to",
          "type": "address"
        },
        {
          "indexed": false,
          "internalType": "uint256",
          "name": "value",
          "type": "uint256"
        }
      ],
      "name": "Transfer",
      "type": "event"
    },
    {
      "inputs": [
        {
          "internalType": "address",
          "name": "owner",
          "type": "address"
        },
        {
          "internalType": "address",
          "name": "spender",
          "type": "address"
        }
      ],
      "name": "allowance",
      "outputs": [
        {
          "internalType": "uint256",
          "name": "",
          "type": "uint256"
        }
      ],
      "stateMutability": "view",
      "type": "function"
    },
    {
      "inputs": [
        {
          "internalType": "address",
          "name": "spender",
          "type": "address"
        },
        {
          "internalType": "uint256",
          "name": "amount",
          "type": "uint256"
        }
      ],
      "name": "approve",
      "outputs": [
        {
          "internalType": "bool",
          "name": "",
          "type": "bool"
        }
      ],
      "stateMutability": "nonpayable",
      "type": "function"
    },
    {
      "inputs": [
        {
          "internalType": "address",
          "name": "account",
          "type": "address"
        }
      ],
      "name": "balanceOf",
      "outputs": [
        {
          "internalType": "uint256",
          "name": "",
          "type": "uint256"
        }
      ],
      "stateMutability": "view",
      "type": "function"
    },
    {
      "inputs": [
        {
          "internalType": "uint256",
          "name": "amount",
          "type": "uint256"
        }
      ],
      "name": "burn",
      "outputs": [],
      "stateMutability": "nonpayable",
      "type": "function"
    },
    {
      "inputs": [],
      "name": "decimals",
      "outputs": [
        {
          "internalType": "uint8",
          "name": "",
          "type": "uint8"
        }
      ],
      "stateMutability": "pure",
      "type": "function"
    },
    {
      "inputs": [
        {
          "internalType": "address",
          "name": "spender",
          "type": "address"
        },
        {
          "internalType": "uint256",
          "name": "subtractedValue",
          "type": "uint256"
        }
      ],
      "name": "decreaseAllowance",
      "outputs": [
        {
          "internalType": "bool",
          "name": "",
          "type": "bool"
        }
      ],
      "stateMutability": "nonpayable",
      "type": "function"
    },
    {
      "inputs": [],
      "name": "getBalance",
      "outputs": [
        {
          "internalType": "uint256",
          "name": "",
          "type": "uint256"
        }
      ],
      "stateMutability": "view",
      "type": "function"
    },
    {
      "inputs": [],
      "name": "getOwnedItems",
      "outputs": [
        {
          "internalType": "string[]",
          "name": "",
          "type": "string[]"
        }
      ],
      "stateMutability": "view",
      "type": "function"
    },
    {
      "inputs": [],
      "name": "getShop",
      "outputs": [
        {
          "components": [
            {
              "internalType": "string",
              "name": "id",
              "type": "string"
            },
            {
              "internalType": "string",
              "name": "name",
              "type": "string"
            },
            {
              "internalType": "uint256",
              "name": "price",
              "type": "uint256"
            }
          ],
          "internalType": "struct DegenToken.Item[]",
          "name": "",
          "type": "tuple[]"
        }
      ],
      "stateMutability": "view",
      "type": "function"
    },
    {
      "inputs": [
        {
          "internalType": "address",
          "name": "spender",
          "type": "address"
        },
        {
          "internalType": "uint256",
          "name": "addedValue",
          "type": "uint256"
        }
      ],
      "name": "increaseAllowance",
      "outputs": [
        {
          "internalType": "bool",
          "name": "",
          "type": "bool"
        }
      ],
      "stateMutability": "nonpayable",
      "type": "function"
    },
    {
      "inputs": [
        {
          "internalType": "address",
          "name": "to",
          "type": "address"
        },
        {
          "internalType": "uint256",
          "name": "amount",
          "type": "uint256"
        }
      ],
      "name": "mint",
      "outputs": [],
      "stateMutability": "nonpayable",
      "type": "function"
    },
    {
      "inputs": [],
      "name": "name",
      "outputs": [
        {
          "internalType": "string",
          "name": "",
          "type": "string"
        }
      ],
      "stateMutability": "view",
      "type": "function"
    },
    {
      "inputs": [],
      "name": "owner",
      "outputs": [
        {
          "internalType": "address",
          "name": "",
          "type": "address"
        }
      ],
      "stateMutability": "view",
      "type": "function"
    },
    {
      "inputs": [
        {
          "internalType": "string",
          "name": "item_id",
          "type": "string"
        }
      ],
      "name": "redeem",
      "outputs": [],
      "stateMutability": "nonpayable",
      "type": "function"
    },
    {
      "inputs": [],
      "name": "renounceOwnership",
      "outputs": [],
      "stateMutability": "nonpayable",
      "type": "function"
    },
    {
      "inputs": [],
      "name": "symbol",
      "outputs": [
        {
          "internalType": "string",
          "name": "",
          "type": "string"
        }
      ],
      "stateMutability": "view",
      "type": "function"
    },
    {
      "inputs": [],
      "name": "totalSupply",
      "outputs": [
        {
          "internalType": "uint256",
          "name": "",
          "type": "uint256"
        }
      ],
      "stateMutability": "view",
      "type": "function"
    },
    {
      "inputs": [
        {
          "internalType": "address",
          "name": "to",
          "type": "address"
        },
        {
          "internalType": "uint256",
          "name": "amount",
          "type": "uint256"
        }
      ],
      "name": "transfer",
      "outputs": [
        {
          "internalType": "bool",
          "name": "",
          "type": "bool"
        }
      ],
      "stateMutability": "nonpayable",
      "type": "function"
    },
    {
      "inputs": [
        {
          "internalType": "address",
          "name": "from",
          "type": "address"
        },
        {
          "internalType": "address",
          "name": "to",
          "type": "address"
        },
        {
          "internalType": "uint256",
          "name": "amount",
          "type": "uint256"
        }
      ],
      "name": "transferFrom",
      "outputs": [
        {
          "internalType": "bool",
          "name": "",
          "type": "bool"
        }
      ],
      "stateMutability": "nonpayable",
      "type": "function"
    },
    {
      "inputs": [
        {
          "internalType": "address",
          "name": "newOwner",
          "type": "address"
        }
      ],
      "name": "transferOwnership",
      "outputs": [],
      "stateMutability": "nonpayable",
      "type": "function"
    }
  ],
  "bytecode": "0x60806040523480156200001157600080fd5b506040518060400160405280600581526020017f446567656e0000000000000000000000000000000000000000000000000000008152506040518060400160405280600381526020017f44474e000000000000000000000000000000000000000000000000000000000081525081600390816200008f9190620006b7565b508060049081620000a19190620006b7565b505050620000c4620000b86200036f60201b60201c565b6200037760201b60201c565b60405180606001604052806040518060400160405280600881526020017f7365612d73616c7400000000000000000000000000000000000000000000000081525081526020016040518060400160405280600881526020017f5365612053616c7400000000000000000000000000000000000000000000000081525081526020016101f481525060076040516200015b90620007f9565b90815260200160405180910390206000820151816000019081620001809190620006b7565b506020820151816001019081620001989190620006b7565b506040820151816002015590505060405180606001604052806040518060400160405280600881526020017f726f7365776f6f6400000000000000000000000000000000000000000000000081525081526020016040518060400160405280600881526020017f526f7365776f6f64000000000000000000000000000000000000000000000000815250815260200161015e81525060076040516200023d9062000860565b90815260200160405180910390206000820151816000019081620002629190620006b7565b5060208201518160010190816200027a9190620006b7565b506040820151816002015590505060405180606001604052806040518060400160405280600a81526020017f6b616e672d77686974650000000000000000000000000000000000000000000081525081526020016040518060400160405280600a81526020017f4b616e67205768697465000000000000000000000000000000000000000000008152508152602001606481525060076040516200031e90620008c7565b90815260200160405180910390206000820151816000019081620003439190620006b7565b5060208201518160010190816200035b9190620006b7565b5060408201518160020155905050620008de565b600033905090565b6000600560009054906101000a900473ffffffffffffffffffffffffffffffffffffffff16905081600560006101000a81548173ffffffffffffffffffffffffffffffffffffffff021916908373ffffffffffffffffffffffffffffffffffffffff1602179055508173ffffffffffffffffffffffffffffffffffffffff168173ffffffffffffffffffffffffffffffffffffffff167f8be0079c531659141344cd1fd0a4f28419497f9722a3daafe3b4186f6b6457e060405160405180910390a35050565b600081519050919050565b7f4e487b7100000000000000000000000000000000000000000000000000000000600052604160045260246000fd5b7f4e487b7100000000000000000000000000000000000000000000000000000000600052602260045260246000fd5b60006002820490506001821680620004bf57607f821691505b602082108103620004d557620004d462000477565b5b50919050565b60008190508160005260206000209050919050565b60006020601f8301049050919050565b600082821b905092915050565b6000600883026200053f7fffffffffffffffffffffffffffffffffffffffffffffffffffffffffffffffff8262000500565b6200054b868362000500565b95508019841693508086168417925050509392505050565b6000819050919050565b6000819050919050565b600062000598620005926200058c8462000563565b6200056d565b62000563565b9050919050565b6000819050919050565b620005b48362000577565b620005cc620005c3826200059f565b8484546200050d565b825550505050565b600090565b620005e3620005d4565b620005f0818484620005a9565b505050565b5b8181101562000618576200060c600082620005d9565b600181019050620005f6565b5050565b601f82111562000667576200063181620004db565b6200063c84620004f0565b810160208510156200064c578190505b620006646200065b85620004f0565b830182620005f5565b50505b505050565b600082821c905092915050565b60006200068c600019846008026200066c565b1980831691505092915050565b6000620006a7838362000679565b9150826002028217905092915050565b620006c2826200043d565b67ffffffffffffffff811115620006de57620006dd62000448565b5b620006ea8254620004a6565b620006f78282856200061c565b600060209050601f8311600181146200072f57600084156200071a578287015190505b62000726858262000699565b86555062000796565b601f1984166200073f86620004db565b60005b82811015620007695784890151825560018201915060208501945060208101905062000742565b8683101562000789578489015162000785601f89168262000679565b8355505b6001600288020188555050505b505050505050565b600081905092915050565b7f7365612d73616c74000000000000000000000000000000000000000000000000600082015250565b6000620007e16008836200079e565b9150620007ee82620007a9565b600882019050919050565b60006200080682620007d2565b9150819050919050565b7f726f7365776f6f64000000000000000000000000000000000000000000000000600082015250565b6000620008486008836200079e565b9150620008558262000810565b600882019050919050565b60006200086d8262000839565b9150819050919050565b7f6b616e672d776869746500000000000000000000000000000000000000000000600082015250565b6000620008af600a836200079e565b9150620008bc8262000877565b600a82019050919050565b6000620008d482620008a0565b9150819050919050565b612e7780620008ee6000396000f3fe608060405234801561001057600080fd5b506004361061012c5760003560e01c806342966c68116100ad57806395d89b411161007157806395d89b4114610321578063a457c2d71461033f578063a9059cbb1461036f578063dd62ed3e1461039f578063f2fde38b146103cf5761012c565b806342966c681461028f57806370a08231146102ab578063715018a6146102db5780638cffa21c146102e55780638da5cb5b146103035761012c565b80631afb2740116100f45780631afb2740146101d757806323b872dd146101f5578063313ce56714610225578063395093511461024357806340c10f19146102735761012c565b806306fdde0314610131578063095ea7b31461014f57806312065fe01461017f5780631222c25a1461019d57806318160ddd146101b9575b600080fd5b6101396103eb565b6040516101469190611aef565b60405180910390f35b61016960048036038101906101649190611bb9565b61047d565b6040516101769190611c14565b60405180910390f35b6101876104a0565b6040516101949190611c3e565b60405180910390f35b6101b760048036038101906101b29190611d8e565b610521565b005b6101c16107de565b6040516101ce9190611c3e565b60405180910390f35b6101df6107e8565b6040516101ec9190611f49565b60405180910390f35b61020f600480360381019061020a9190611f6b565b610ca6565b60405161021c9190611c14565b60405180910390f35b61022d610cd5565b60405161023a9190611fda565b60405180910390f35b61025d60048036038101906102589190611bb9565b610cda565b60405161026a9190611c14565b60405180910390f35b61028d60048036038101906102889190611bb9565b610d11565b005b6102a960048036038101906102a49190611ff5565b610d27565b005b6102c560048036038101906102c09190612022565b610d34565b6040516102d29190611c3e565b60405180910390f35b6102e3610d7c565b005b6102ed610d90565b6040516102fa9190612111565b60405180910390f35b61030b610ea6565b6040516103189190612142565b60405180910390f35b610329610ed0565b6040516103369190611aef565b60405180910390f35b61035960048036038101906103549190611bb9565b610f62565b6040516103669190611c14565b60405180910390f35b61038960048036038101906103849190611bb9565b610fd9565b6040516103969190611c14565b60405180910390f35b6103b960048036038101906103b4919061215d565b610ff0565b6040516103c69190611c3e565b60405180910390f35b6103e960048036038101906103e49190612022565b611077565b005b6060600380546103fa906121cc565b80601f0160208091040260200160405190810160405280929190818152602001828054610426906121cc565b80156104735780601f1061044857610100808354040283529160200191610473565b820191906000526020600020905b81548152906001019060200180831161045657829003601f168201915b5050505050905090565b6000806104886110fa565b9050610495818585611102565b600191505092915050565b60003073ffffffffffffffffffffffffffffffffffffffff166370a08231336040518263ffffffff1660e01b81526004016104db9190612142565b602060405180830381865afa1580156104f8573d6000803e3d6000fd5b505050506040513d601f19601f8201168201806040525081019061051c9190612212565b905090565b6000600782604051610533919061227b565b908152602001604051809103902060405180606001604052908160008201805461055c906121cc565b80601f0160208091040260200160405190810160405280929190818152602001828054610588906121cc565b80156105d55780601f106105aa576101008083540402835291602001916105d5565b820191906000526020600020905b8154815290600101906020018083116105b857829003601f168201915b505050505081526020016001820180546105ee906121cc565b80601f016020809104026020016040519081016040528092919081815260200182805461061a906121cc565b80156106675780601f1061063c57610100808354040283529160200191610667565b820191906000526020600020905b81548152906001019060200180831161064a57829003601f168201915b5050505050815260200160028201548152505090506000816000015151036106c4576040517f08c379a00000000000000000000000000000000000000000000000000000000081526004016106bb906122de565b60405180910390fd5b80604001516106d233610d34565b1015610713576040517f08c379a000000000000000000000000000000000000000000000000000000000815260040161070a9061234a565b60405180910390fd5b6107213382604001516112cb565b600660003373ffffffffffffffffffffffffffffffffffffffff1673ffffffffffffffffffffffffffffffffffffffff16815260200190815260200160002081600001519080600181540180825580915050600190039060005260206000200160009091909190915090816107969190612516565b507f0f5478c8357728788ffc908f1a951d2b2179a0f695b1e2f52deb80cca6b8353933826040015183600001516040516107d2939291906125e8565b60405180910390a15050565b6000600254905090565b60606000600367ffffffffffffffff81111561080757610806611c63565b5b60405190808252806020026020018201604052801561084057816020015b61082d611a3e565b8152602001906001900390816108255790505b509050600760405161085190612672565b908152602001604051809103902060405180606001604052908160008201805461087a906121cc565b80601f01602080910402602001604051908101604052809291908181526020018280546108a6906121cc565b80156108f35780601f106108c8576101008083540402835291602001916108f3565b820191906000526020600020905b8154815290600101906020018083116108d657829003601f168201915b5050505050815260200160018201805461090c906121cc565b80601f0160208091040260200160405190810160405280929190818152602001828054610938906121cc565b80156109855780601f1061095a57610100808354040283529160200191610985565b820191906000526020600020905b81548152906001019060200180831161096857829003601f168201915b50505050508152602001600282015481525050816000815181106109ac576109ab612687565b5b602002602001018190525060076040516109c590612702565b90815260200160405180910390206040518060600160405290816000820180546109ee906121cc565b80601f0160208091040260200160405190810160405280929190818152602001828054610a1a906121cc565b8015610a675780601f10610a3c57610100808354040283529160200191610a67565b820191906000526020600020905b815481529060010190602001808311610a4a57829003601f168201915b50505050508152602001600182018054610a80906121cc565b80601f0160208091040260200160405190810160405280929190818152602001828054610aac906121cc565b8015610af95780601f10610ace57610100808354040283529160200191610af9565b820191906000526020600020905b815481529060010190602001808311610adc57829003601f168201915b5050505050815260200160028201548152505081600181518110610b2057610b1f612687565b5b60200260200101819052506007604051610b3990612763565b9081526020016040518091039020604051806060016040529081600082018054610b62906121cc565b80601f0160208091040260200160405190810160405280929190818152602001828054610b8e906121cc565b8015610bdb5780601f10610bb057610100808354040283529160200191610bdb565b820191906000526020600020905b815481529060010190602001808311610bbe57829003601f168201915b50505050508152602001600182018054610bf4906121cc565b80601f0160208091040260200160405190810160405280929190818152602001828054610c20906121cc565b8015610c6d5780601f10610c4257610100808354040283529160200191610c6d565b820191906000526020600020905b815481529060010190602001808311610c5057829003601f168201915b5050505050815260200160028201548152505081600281518110610c9457610c93612687565b5b60200260200101819052508091505090565b600080610cb16110fa565b9050610cbe858285611498565b610cc9858585611524565b60019150509392505050565b600090565b600080610ce56110fa565b9050610d06818585610cf78589610ff0565b610d0191906127a7565b611102565b600191505092915050565b610d1961179a565b610d238282611818565b5050565b610d3133826112cb565b50565b60008060008373ffffffffffffffffffffffffffffffffffffffff1673ffffffffffffffffffffffffffffffffffffffff168152602001908152602001600020549050919050565b610d8461179a565b610d8e600061196e565b565b6060600660003373ffffffffffffffffffffffffffffffffffffffff1673ffffffffffffffffffffffffffffffffffffffff168152602001908152602001600020805480602002602001604051908101604052809291908181526020016000905b82821015610e9d578382906000526020600020018054610e10906121cc565b80601f0160208091040260200160405190810160405280929190818152602001828054610e3c906121cc565b8015610e895780601f10610e5e57610100808354040283529160200191610e89565b820191906000526020600020905b815481529060010190602001808311610e6c57829003601f168201915b505050505081526020019060010190610df1565b50505050905090565b6000600560009054906101000a900473ffffffffffffffffffffffffffffffffffffffff16905090565b606060048054610edf906121cc565b80601f0160208091040260200160405190810160405280929190818152602001828054610f0b906121cc565b8015610f585780601f10610f2d57610100808354040283529160200191610f58565b820191906000526020600020905b815481529060010190602001808311610f3b57829003601f168201915b5050505050905090565b600080610f6d6110fa565b90506000610f7b8286610ff0565b905083811015610fc0576040517f08c379a0000000000000000000000000000000000000000000000000000000008152600401610fb79061284d565b60405180910390fd5b610fcd8286868403611102565b60019250505092915050565b6000610fe6338484611524565b6001905092915050565b6000600160008473ffffffffffffffffffffffffffffffffffffffff1673ffffffffffffffffffffffffffffffffffffffff16815260200190815260200160002060008373ffffffffffffffffffffffffffffffffffffffff1673ffffffffffffffffffffffffffffffffffffffff16815260200190815260200160002054905092915050565b61107f61179a565b600073ffffffffffffffffffffffffffffffffffffffff168173ffffffffffffffffffffffffffffffffffffffff16036110ee576040517f08c379a00000000000000000000000000000000000000000000000000000000081526004016110e5906128df565b60405180910390fd5b6110f78161196e565b50565b600033905090565b600073ffffffffffffffffffffffffffffffffffffffff168373ffffffffffffffffffffffffffffffffffffffff1603611171576040517f08c379a000000000000000000000000000000000000000000000000000000000815260040161116890612971565b60405180910390fd5b600073ffffffffffffffffffffffffffffffffffffffff168273ffffffffffffffffffffffffffffffffffffffff16036111e0576040517f08c379a00000000000000000000000000000000000000000000000000000000081526004016111d790612a03565b60405180910390fd5b80600160008573ffffffffffffffffffffffffffffffffffffffff1673ffffffffffffffffffffffffffffffffffffffff16815260200190815260200160002060008473ffffffffffffffffffffffffffffffffffffffff1673ffffffffffffffffffffffffffffffffffffffff168152602001908152602001600020819055508173ffffffffffffffffffffffffffffffffffffffff168373ffffffffffffffffffffffffffffffffffffffff167f8c5be1e5ebec7d5bd14f71427d1e84f3dd0314c0f7b2291e5b200ac8c7c3b925836040516112be9190611c3e565b60405180910390a3505050565b600073ffffffffffffffffffffffffffffffffffffffff168273ffffffffffffffffffffffffffffffffffffffff160361133a576040517f08c379a000000000000000000000000000000000000000000000000000000000815260040161133190612a95565b60405180910390fd5b61134682600083611a34565b60008060008473ffffffffffffffffffffffffffffffffffffffff1673ffffffffffffffffffffffffffffffffffffffff168152602001908152602001600020549050818110156113cc576040517f08c379a00000000000000000000000000000000000000000000000000000000081526004016113c390612b27565b60405180910390fd5b8181036000808573ffffffffffffffffffffffffffffffffffffffff1673ffffffffffffffffffffffffffffffffffffffff1681526020019081526020016000208190555081600260008282540392505081905550600073ffffffffffffffffffffffffffffffffffffffff168373ffffffffffffffffffffffffffffffffffffffff167fddf252ad1be2c89b69c2b068fc378daa952ba7f163c4a11628f55a4df523b3ef8460405161147f9190611c3e565b60405180910390a361149383600084611a39565b505050565b60006114a48484610ff0565b90507fffffffffffffffffffffffffffffffffffffffffffffffffffffffffffffffff811461151e5781811015611510576040517f08c379a000000000000000000000000000000000000000000000000000000000815260040161150790612b93565b60405180910390fd5b61151d8484848403611102565b5b50505050565b600073ffffffffffffffffffffffffffffffffffffffff168373ffffffffffffffffffffffffffffffffffffffff1603611593576040517f08c379a000000000000000000000000000000000000000000000000000000000815260040161158a90612c25565b60405180910390fd5b600073ffffffffffffffffffffffffffffffffffffffff168273ffffffffffffffffffffffffffffffffffffffff1603611602576040517f08c379a00000000000000000000000000000000000000000000000000000000081526004016115f990612cb7565b60405180910390fd5b61160d838383611a34565b60008060008573ffffffffffffffffffffffffffffffffffffffff1673ffffffffffffffffffffffffffffffffffffffff16815260200190815260200160002054905081811015611693576040517f08c379a000000000000000000000000000000000000000000000000000000000815260040161168a90612d49565b60405180910390fd5b8181036000808673ffffffffffffffffffffffffffffffffffffffff1673ffffffffffffffffffffffffffffffffffffffff16815260200190815260200160002081905550816000808573ffffffffffffffffffffffffffffffffffffffff1673ffffffffffffffffffffffffffffffffffffffff168152602001908152602001600020600082825401925050819055508273ffffffffffffffffffffffffffffffffffffffff168473ffffffffffffffffffffffffffffffffffffffff167fddf252ad1be2c89b69c2b068fc378daa952ba7f163c4a11628f55a4df523b3ef846040516117819190611c3e565b60405180910390a3611794848484611a39565b50505050565b6117a26110fa565b73ffffffffffffffffffffffffffffffffffffffff166117c0610ea6565b73ffffffffffffffffffffffffffffffffffffffff1614611816576040517f08c379a000000000000000000000000000000000000000000000000000000000815260040161180d90612db5565b60405180910390fd5b565b600073ffffffffffffffffffffffffffffffffffffffff168273ffffffffffffffffffffffffffffffffffffffff1603611887576040517f08c379a000000000000000000000000000000000000000000000000000000000815260040161187e90612e21565b60405180910390fd5b61189360008383611a34565b80600260008282546118a591906127a7565b92505081905550806000808473ffffffffffffffffffffffffffffffffffffffff1673ffffffffffffffffffffffffffffffffffffffff168152602001908152602001600020600082825401925050819055508173ffffffffffffffffffffffffffffffffffffffff16600073ffffffffffffffffffffffffffffffffffffffff167fddf252ad1be2c89b69c2b068fc378daa952ba7f163c4a11628f55a4df523b3ef836040516119569190611c3e565b60405180910390a361196a60008383611a39565b5050565b6000600560009054906101000a900473ffffffffffffffffffffffffffffffffffffffff16905081600560006101000a81548173ffffffffffffffffffffffffffffffffffffffff021916908373ffffffffffffffffffffffffffffffffffffffff1602179055508173ffffffffffffffffffffffffffffffffffffffff168173ffffffffffffffffffffffffffffffffffffffff167f8be0079c531659141344cd1fd0a4f28419497f9722a3daafe3b4186f6b6457e060405160405180910390a35050565b505050565b505050565b60405180606001604052806060815260200160608152602001600081525090565b600081519050919050565b600082825260208201905092915050565b60005b83811015611a99578082015181840152602081019050611a7e565b60008484015250505050565b6000601f19601f8301169050919050565b6000611ac182611a5f565b611acb8185611a6a565b9350611adb818560208601611a7b565b611ae481611aa5565b840191505092915050565b60006020820190508181036000830152611b098184611ab6565b905092915050565b6000604051905090565b600080fd5b600080fd5b600073ffffffffffffffffffffffffffffffffffffffff82169050919050565b6000611b5082611b25565b9050919050565b611b6081611b45565b8114611b6b57600080fd5b50565b600081359050611b7d81611b57565b92915050565b6000819050919050565b611b9681611b83565b8114611ba157600080fd5b50565b600081359050611bb381611b8d565b92915050565b60008060408385031215611bd057611bcf611b1b565b5b6000611bde85828601611b6e565b9250506020611bef85828601611ba4565b9150509250929050565b60008115159050919050565b611c0e81611bf9565b82525050565b6000602082019050611c296000830184611c05565b92915050565b611c3881611b83565b82525050565b6000602082019050611c536000830184611c2f565b92915050565b600080fd5b600080fd5b7f4e487b7100000000000000000000000000000000000000000000000000000000600052604160045260246000fd5b611c9b82611aa5565b810181811067ffffffffffffffff82111715611cba57611cb9611c63565b5b80604052505050565b6000611ccd611b11565b9050611cd98282611c92565b919050565b600067ffffffffffffffff821115611cf957611cf8611c63565b5b611d0282611aa5565b9050602081019050919050565b82818337600083830152505050565b6000611d31611d2c84611cde565b611cc3565b905082815260208101848484011115611d4d57611d4c611c5e565b5b611d58848285611d0f565b509392505050565b600082601f830112611d7557611d74611c59565b5b8135611d85848260208601611d1e565b91505092915050565b600060208284031215611da457611da3611b1b565b5b600082013567ffffffffffffffff811115611dc257611dc1611b20565b5b611dce84828501611d60565b91505092915050565b600081519050919050565b600082825260208201905092915050565b6000819050602082019050919050565b600082825260208201905092915050565b6000611e1f82611a5f565b611e298185611e03565b9350611e39818560208601611a7b565b611e4281611aa5565b840191505092915050565b611e5681611b83565b82525050565b60006060830160008301518482036000860152611e798282611e14565b91505060208301518482036020860152611e938282611e14565b9150506040830151611ea86040860182611e4d565b508091505092915050565b6000611ebf8383611e5c565b905092915050565b6000602082019050919050565b6000611edf82611dd7565b611ee98185611de2565b935083602082028501611efb85611df3565b8060005b85811015611f375784840389528151611f188582611eb3565b9450611f2383611ec7565b925060208a01995050600181019050611eff565b50829750879550505050505092915050565b60006020820190508181036000830152611f638184611ed4565b905092915050565b600080600060608486031215611f8457611f83611b1b565b5b6000611f9286828701611b6e565b9350506020611fa386828701611b6e565b9250506040611fb486828701611ba4565b9150509250925092565b600060ff82169050919050565b611fd481611fbe565b82525050565b6000602082019050611fef6000830184611fcb565b92915050565b60006020828403121561200b5761200a611b1b565b5b600061201984828501611ba4565b91505092915050565b60006020828403121561203857612037611b1b565b5b600061204684828501611b6e565b91505092915050565b600081519050919050565b600082825260208201905092915050565b6000819050602082019050919050565b60006120878383611e14565b905092915050565b6000602082019050919050565b60006120a78261204f565b6120b1818561205a565b9350836020820285016120c38561206b565b8060005b858110156120ff57848403895281516120e0858261207b565b94506120eb8361208f565b925060208a019950506001810190506120c7565b50829750879550505050505092915050565b6000602082019050818103600083015261212b818461209c565b905092915050565b61213c81611b45565b82525050565b60006020820190506121576000830184612133565b92915050565b6000806040838503121561217457612173611b1b565b5b600061218285828601611b6e565b925050602061219385828601611b6e565b9150509250929050565b7f4e487b7100000000000000000000000000000000000000000000000000000000600052602260045260246000fd5b600060028204905060018216806121e457607f821691505b6020821081036121f7576121f661219d565b5b50919050565b60008151905061220c81611b8d565b92915050565b60006020828403121561222857612227611b1b565b5b6000612236848285016121fd565b91505092915050565b600081905092915050565b600061225582611a5f565b61225f818561223f565b935061226f818560208601611a7b565b80840191505092915050565b6000612287828461224a565b915081905092915050565b7f4974656d20646f6573206e6f7420657869737420696e207468652073686f7000600082015250565b60006122c8601f83611a6a565b91506122d382612292565b602082019050919050565b600060208201905081810360008301526122f7816122bb565b9050919050565b7f496e73756666696369656e742062616c616e6365000000000000000000000000600082015250565b6000612334601483611a6a565b915061233f826122fe565b602082019050919050565b6000602082019050818103600083015261236381612327565b9050919050565b60008190508160005260206000209050919050565b60006020601f8301049050919050565b600082821b905092915050565b6000600883026123cc7fffffffffffffffffffffffffffffffffffffffffffffffffffffffffffffffff8261238f565b6123d6868361238f565b95508019841693508086168417925050509392505050565b6000819050919050565b600061241361240e61240984611b83565b6123ee565b611b83565b9050919050565b6000819050919050565b61242d836123f8565b6124416124398261241a565b84845461239c565b825550505050565b600090565b612456612449565b612461818484612424565b505050565b5b818110156124855761247a60008261244e565b600181019050612467565b5050565b601f8211156124ca5761249b8161236a565b6124a48461237f565b810160208510156124b3578190505b6124c76124bf8561237f565b830182612466565b50505b505050565b600082821c905092915050565b60006124ed600019846008026124cf565b1980831691505092915050565b600061250683836124dc565b9150826002028217905092915050565b61251f82611a5f565b67ffffffffffffffff81111561253857612537611c63565b5b61254282546121cc565b61254d828285612489565b600060209050601f831160018114612580576000841561256e578287015190505b61257885826124fa565b8655506125e0565b601f19841661258e8661236a565b60005b828110156125b657848901518255600182019150602085019450602081019050612591565b868310156125d357848901516125cf601f8916826124dc565b8355505b6001600288020188555050505b505050505050565b60006060820190506125fd6000830186612133565b61260a6020830185611c2f565b818103604083015261261c8184611ab6565b9050949350505050565b7f7365612d73616c74000000000000000000000000000000000000000000000000600082015250565b600061265c60088361223f565b915061266782612626565b600882019050919050565b600061267d8261264f565b9150819050919050565b7f4e487b7100000000000000000000000000000000000000000000000000000000600052603260045260246000fd5b7f726f7365776f6f64000000000000000000000000000000000000000000000000600082015250565b60006126ec60088361223f565b91506126f7826126b6565b600882019050919050565b600061270d826126df565b9150819050919050565b7f6b616e672d776869746500000000000000000000000000000000000000000000600082015250565b600061274d600a8361223f565b915061275882612717565b600a82019050919050565b600061276e82612740565b9150819050919050565b7f4e487b7100000000000000000000000000000000000000000000000000000000600052601160045260246000fd5b60006127b282611b83565b91506127bd83611b83565b92508282019050808211156127d5576127d4612778565b5b92915050565b7f45524332303a2064656372656173656420616c6c6f77616e63652062656c6f7760008201527f207a65726f000000000000000000000000000000000000000000000000000000602082015250565b6000612837602583611a6a565b9150612842826127db565b604082019050919050565b600060208201905081810360008301526128668161282a565b9050919050565b7f4f776e61626c653a206e6577206f776e657220697320746865207a65726f206160008201527f6464726573730000000000000000000000000000000000000000000000000000602082015250565b60006128c9602683611a6a565b91506128d48261286d565b604082019050919050565b600060208201905081810360008301526128f8816128bc565b9050919050565b7f45524332303a20617070726f76652066726f6d20746865207a65726f2061646460008201527f7265737300000000000000000000000000000000000000000000000000000000602082015250565b600061295b602483611a6a565b9150612966826128ff565b604082019050919050565b6000602082019050818103600083015261298a8161294e565b9050919050565b7f45524332303a20617070726f766520746f20746865207a65726f20616464726560008201527f7373000000000000000000000000000000000000000000000000000000000000602082015250565b60006129ed602283611a6a565b91506129f882612991565b604082019050919050565b60006020820190508181036000830152612a1c816129e0565b9050919050565b7f45524332303a206275726e2066726f6d20746865207a65726f2061646472657360008201527f7300000000000000000000000000000000000000000000000000000000000000602082015250565b6000612a7f602183611a6a565b9150612a8a82612a23565b604082019050919050565b60006020820190508181036000830152612aae81612a72565b9050919050565b7f45524332303a206275726e20616d6f756e7420657863656564732062616c616e60008201527f6365000000000000000000000000000000000000000000000000000000000000602082015250565b6000612b11602283611a6a565b9150612b1c82612ab5565b604082019050919050565b60006020820190508181036000830152612b4081612b04565b9050919050565b7f45524332303a20696e73756666696369656e7420616c6c6f77616e6365000000600082015250565b6000612b7d601d83611a6a565b9150612b8882612b47565b602082019050919050565b60006020820190508181036000830152612bac81612b70565b9050919050565b7f45524332303a207472616e736665722066726f6d20746865207a65726f20616460008201527f6472657373000000000000000000000000000000000000000000000000000000602082015250565b6000612c0f602583611a6a565b9150612c1a82612bb3565b604082019050919050565b60006020820190508181036000830152612c3e81612c02565b9050919050565b7f45524332303a207472616e7366657220746f20746865207a65726f206164647260008201527f6573730000000000000000000000000000000000000000000000000000000000602082015250565b6000612ca1602383611a6a565b9150612cac82612c45565b604082019050919050565b60006020820190508181036000830152612cd081612c94565b9050919050565b7f45524332303a207472616e7366657220616d6f756e742065786365656473206260008201527f616c616e63650000000000000000000000000000000000000000000000000000602082015250565b6000612d33602683611a6a565b9150612d3e82612cd7565b604082019050919050565b60006020820190508181036000830152612d6281612d26565b9050919050565b7f4f776e61626c653a2063616c6c6572206973206e6f7420746865206f776e6572600082015250565b6000612d9f602083611a6a565b9150612daa82612d69565b602082019050919050565b60006020820190508181036000830152612dce81612d92565b9050919050565b7f45524332303a206d696e7420746f20746865207a65726f206164647265737300600082015250565b6000612e0b601f83611a6a565b9150612e1682612dd5565b602082019050919050565b60006020820190508181036000830152612e3a81612dfe565b905091905056fea264697066735822122001bfd7057f4736089778fce3efd03127eb3190a324d2c6f4c88a490d91b9c29b64736f6c63430008120033",
  "linkReferences": {},
  "deployedLinkReferences": {}
}